:020000001D28B9
:1000060083120313081003309300831614180C2868
:1000160008288312220893008316141813280F2821
:10002600FF3083129300831614181A281628831299
:0400360008140800A2
:10003A00831603138711871207160810403094009D
:10004A0020308312940008148230FC00DD30FD0059
:10005A00FD0B2D28FC0B2D28000000002030A200EB
:10006A0003200330FB008A30FC005530FD00FD0BF5
:10007A003C28FC0B3C28FB0B3C28000000003328E2
:02008A00452807
:04400E00F22F000786
:00000001FF
