:0200000088284E
:1000060083160313981809280000032883124D0845
:040016009900080045
:10001A0083120313CC014A0884000008CB004B0862
:10002A00003A031922284B08CD000320CC0A4C08B9
:0C003A004A0784000008CB0014280800CE
:0E0046008312031348088A004708820008004E
:10005400831203134A0893008316141832282E2897
:0800640083121308F0000800EC
:10006C0023208A110A128000840AC70A0319C80ABD
:08007C00F003031D3628080003
:100084008312031308100E30CA002A20CA012A2042
:1000940008148230FC00DD30FD00FD0B4F28FC0B02
:0800A4004F28000000000800D5
:1000AC00343083120313CA000D2008108230FC0078
:1000BC00DD30FD00FD0B6028FC0B6028000000000B
:1000CC008130CA002A201930CA002A2008140D30A9
:1000DC00FC00FB30FD00FD0B7128FC0B71280000AF
:0400EC000000080008
:1000F000831603139816903083129800831687177F
:10010000071383128C1E87281A08F0008128080024
:10011000DE2019308316031399001815782020303B
:10012000CA000D2083168711871207160810403069
:10013000940020308312940008140B30FB0026300A
:10014000FC005D30FD00FD0BA328FC0BA328FB0B7E
:10015000A328000000000130C90042205620AF282B
:02016000B028C5
:1001BC0020308400273083120313F000B630C700C0
:0801CC000030C80036200800D5
:10016C0069346E346934633469346F3420346434E4
:10017C00653420346C34613420347034723475340A
:08018C00653462346134003473
:10019400533465347434653461346E3464346F3488
:1001A400203465346C3420347434693465346D34EB
:0601B40070346F340034CA
:04400E00F22F000786
:00000001FF
