:02000000542981
:10000600831203131A08F100981C0B2818121816ED
:060016007108F000080073
:0E001C000030831203138C1A0130F00008002C
:10002A00831203137008F100F0010830FC00710814
:10003A00F40C03182428FC0B1D28F10100340310CA
:10004A002928F40C0318F107F10CF00CFC0B2628F4
:02005A0008009C
:10005C000E20700803193428032035282E28080098
:0E006C008312031339088A0038088200080046
:10007A008312031353089300831614184528412842
:08008A0083121308F0000800C6
:100092008316031398184F28000049288312530827
:0400A20099000800B9
:1000A60083120313CE0108100D30FC00FB30FD0057
:1000B600FD0B5B28FC0B5B28000000004D0884004C
:1000C6000008D3003D200130CE0004304E02031854
:1000D60077284E084D07CF00D3013D204F088400F6
:1000E60070088000CE0A682808140D30FC00FB302A
:1000F600FD00FD0B7C28FC0B7C280000000008009E
:1001060036208A110A128000840AB80A0319B90A2D
:08011600F003031D832808001B
:10011E008312031308100E30D3003D20D3013D206F
:10012E0008148230FC00DD30FD00FD0B9C28FC0B1A
:08013E009C28000000000800ED
:1001460083120313CE0108100D30FC00FB30FD00B6
:10015600FD0BAB28FC0BAB28000000004D0884000B
:100166000008D3003D200130CE0004304E020318B3
:10017600C4284E084D0784000008D3003D20CE0A4F
:10018600B82808140D30FC00FB30FD00FD0BC92813
:0A019600FC0BC9280000000008005F
:1001A00083120313CF014D0884000008CE004E08CF
:1001B000003A0319E5284E08D3004920CF0A4F081A
:0C01C0004D0784000008CE00D72808007E
:1001CC00831203134D08F000F00CF013F00CF01335
:1001DC00F00CF013F00CF0130630F400152070083E
:1001EC004D02F0007108031C013EF101F102080000
:1001FC008316031398169030831298008316871772
:10020C00071383128C1E0D291A08F0000729080009
:10021C0083120313D101D2012E207008D1002E209D
:10022C007008D20041305102031C2C293730510286
:10023C00CD000430F0000030CE00700803192B29DB
:10024C00CD0DCE0D4D10FF3E24293B2930305102EF
:10025C00CD000430F0000030CE00700803193B29AB
:10026C00CD0DCE0D4D10FF3E34294D08D10041303F
:10027C005202031C472937305202CF000030D00005
:10028C004C2930305202CF000030D0004F085107BB
:0C029C00F0007008D100FF308600080060
:1002A8004F3083120313A0004B30A1000A30A20084
:1002B800A3016930A4006E30A5006930A600633040
:1002C800A7006930A8006F30A9002030AA00643068
:1002D800AB006530AC002030AD006C30AE00613052
:1002E800AF002030B0007030B1007230B20075300D
:1002F800B3006530B4006230B5006130B600B701B4
:10030800BB018430BC002630BD000430BE00203064
:10031800BF000430C000C101C201C3018030C40065
:100328005930C5003030C6000530C700C801C901C2
:10033800CA01CB011930831699001815FE20243004
:10034800CD00D02083168711871207160810940154
:1003580020308312940008140B30FB002630FC0078
:100368005D30FD00FD0BB629FC0BB629FB0BB62949
:10037800000000000130CD008F203C30CD00A320CC
:100388004430CD00A3201A30FB005E30FC006E30F4
:10039800FD00FD0BCD29FC0BCD29FB0BCD29000061
:1003A800BB010E20700803192D2A03207008BB001A
:1003B8007008723A031D002A4030CD00532048309F
:1003C800CD0053200330BA003A08003C0318002A35
:1003D8003A08483E84000008CD00E6207008D300A3
:1003E80049203A08403E84000008CD00E620700805
:1003F800D3004920BA03E8293B08733A031D2D2A84
:100408000330BA003A08003C0318142A3A08443E5C
:10041800CC000E214C08840070088000BA03062A1C
:100428000130BA0004303A020318242A3A083C3E44
:10043800CC000E214C08840070088000BA0A162AE5
:100448003C30CD00A3204430CD00A3202030CD0087
:06045800D020D4292E2A59
:04400E00F22F000786
:00000001FF
