:02000000422993
:1000060083120313F801F9011030FC00710DF80D8D
:10001600F90D7408F8027508031C750FF902031828
:100026001B287408F80775080318750FF9070310DD
:0A003600F00DF10DFC0B0928080085
:1000400083160313A5010530250203182E28250861
:100050002407840020308000A50A232825082407CF
:1000600084008001A50325082407A6000A30F400B7
:10007000F5012208F0002308F10003207808F000C1
:100080007908F1003030F0078316260884007008E4
:1000900080000A30F400F5012208F0002308F10086
:1000A000032070088316A2007108A30000307106B7
:1000B000031D5C2800307006031D5F286128A5031E
:0400C00033280800D9
:1000C40083160313981868280000622822088312F4
:0400D4009900080087
:1000D80083120313EB01690884000008EA006A0828
:1000E800003A031982286A088316A2006220EB0AE4
:0E00F8006B08690784000008EA0073280800FE
:0E0106008312031353088A0052088200080077
:100114008312031393018316141891288D28141045
:0801240083121308F00008002B
:10012C0083120313EE01EF0169088316A0008312FA
:10013C006A088316A100803083126A06F0008030B2
:10014C007002031DAB28003069020318BC28013073
:10015C00EE000030EF006908003C8316A00083120B
:10016C006A08031C013E8316A101A1028316200814
:10017C00A2002108A30083126B088316A400202080
:10018C0006308312EC000030ED006D08003C031DBE
:10019C00D1286C08003C0318EC286C086B07F200A3
:1001AC0001306C02F0000030031C013E6D02F100C6
:1001BC0070086B0784000008F00072088400700857
:1001CC0080000130EC02031CED03CB286B0884008B
:1001DC00203080006E086F0403190A29EC01ED0130
:1001EC006C086B0784000008203A031D0129EC0AF7
:1001FC000319ED0AF6280130EC02031CED036C0820
:0A020C006B0784002D30800008000D
:100216008316031398169030831298008316871757
:10022600071383128C1E1A291A08F00014290800D5
:1002360083120313E80108102030E9006C20E8015E
:100246000830680203183429E9018A207008E90099
:10025600EA015E30EB0096205E30E9006C20E80A89
:0602660023290814080022
:10026C0083208A110A128000840AD20A0319D30A45
:08027C00F003031D3629080000
:10028400CE21193083160313990018150B213E3023
:10029400E9006C2083168711871207160810403076
:1002A400940020308312940008140630FB001330AD
:1002B400FC00AD30FD00FD0B5D29FC0B5D29FB0B43
:1002C4005D290000000008102F30E9006C200E307A
:1002D400E9008A20E9018A207008E900EA01543023
:1002E400EB0096205430E9006C2008140630FB0023
:1002F4001330FC00AD30FD00FD0B7E29FC0B7E2984
:10030400FB0B7E29000000001B210830FB009D3000
:10031400FC000530FD00FD0B8D29FC0B8D29FB0B2A
:0A0324008D290000000086299629AB
:10039C0020308400323083120313F0009C30D200E2
:0803AC000130D30036210800E6
:100338004C344534593445344E3444344F342034E5
:0E0348005434493445344D3450344F3400346D
:1003560043346F346E3466346934673475347234BA
:0E03660061346E3464346F343A342034003421
:1003740069346E346934633469346F3420346434DA
:10038400653420346C346134203470347234753400
:08039400653462346134003469
:04400E00F22F000786
:00000001FF
