:020000002929AC
:1000060083120313F8010830FC00700DF80D740814
:10001600F80203181028F8070310F00DFC0B082847
:020026000800D0
:10002800831203137008F100F0010830FC00710816
:10003800F40C03182328FC0B1C28F10100340310CE
:100048002828F40C0318F107F10CF00CFC0B2528F8
:0200580008009E
:10005A00831603139818332800002D2883124B089F
:04006A0099000800F1
:10006E00831203134B089300831614183F283B2862
:08007E0083121308F0000800D2
:100086000A3083120313F4004B08F00003200630F5
:0E009600F40014204B08F0070318F10A0800CC
:0E00A4008312031335088A0034088200080016
:1000B200831203131A08F100981C612818121816EB
:0600C2007108F0000800C7
:1000C80083120313CA01480884000008C9004908BC
:1000D800003A031979284908CB002D20CA0A4A0892
:0C00E800480784000008C9006B280800CD
:1000F40083120313C90108100D30FC00FB30FD000E
:10010400FD0B8228FC0B82280000000048088400B4
:100114000008CB0037200130C9000430490203181D
:100124009E2849084807CA00CB0137204A088400A2
:1001340070088000C90A8F2808140D30FC00FB30B9
:10014400FD00FD0BA328FC0BA32800000000080001
:100154008312031308100E30CB003720CB01372055
:1001640008148230FC00DD30FD00FD0BB728FC0BC9
:08017400B7280000000008009C
:10017C0052208A110A128000840AB40A0319B50AA3
:08018C00F003031DBE2808006A
:0E0194000030831203138C1A0130F0000800B3
:1001A20083120313C90108100D30FC00FB30FD005F
:1001B200FD0BD928FC0BD928000000004808840058
:1001C2000008CB0037200130C9000430490203186F
:1001D200F5284908480784000008CB00432070082E
:1001E200CB003720C90AE62808140D30FC00FB308A
:1001F200FD00FD0BFA28FC0BFA28000000000800A5
:10020200831203134808F000F00CF013F00CF01303
:10021200F00CF013F00CF0130630F4001420700808
:100222004802F0007108031C013EF101F1020800CE
:10023200831603139816903083129800831687173B
:10024200071383128C1E28291A08F000222908009D
:10025200693083120313A0006E30A1006930A2003E
:100262006330A3006930A4006F30A5002030A600DF
:100272006430A7006530A8002030A9006C30AA00C5
:100282006130AB002030AC007030AD007230AE0097
:100292007530AF006530B0006230B1006130B2003D
:1002A200B301B7018430B8001A30B9000430BA0083
:1002B2001430BB000430BC00BD01BE01BF01803060
:1002C200C0003B30C1001E30C2000530C300C40173
:1002D200C501C601C70119308316990018151921E5
:1002E2002030C80064208316871187120716081071
:1002F200940120308312940008140B30FB00263046
:10030200FC005D30FD00FD0B8429FC0B8429FB0BF6
:100312008429000000000130C800AA203830C8003B
:10032200D1204030C800D1201A30FB005E30FC00E2
:100332006E30FD00FD0B9B29FC0B9B29FB0B9B29BF
:100342000000B701CA2070080319F2295920700869
:10035200B7007008723A031DCE293C30C8007A20DB
:100362004430C8007A200330B6003608003C031837
:10037200CE293608443E84000008C80001217008D6
:10038200CB002D2036083C3E84000008C800012125
:100392007008CB002D20B603B6293708733A031D27
:1003A200F2293C30C8007A204430C8007A20033059
:1003B200B6003608003C0318F2293608443E840091
:1003C2000008C80001217008CB002D2036083C3EF1
:1003D20084000008C80001217008CB002D20B6035C
:0603E200DA29A229F3292B
:04400E00F22F000786
:00000001FF
