:02000000DE29F7
:1000060083120313F801F9011030FC00710DF80D8D
:10001600F90D7408F8027508031C750FF902031828
:100026001B287408F80775080318750FF9070310DD
:0A003600F00DF10DFC0B0928080085
:1000400083120313F8010830FC00700DF80D7408DA
:10005000F80203182D28F8070310F00DFC0B2528D3
:02006000080096
:10006200831203137008F100F0010830FC007108DC
:10007200F40C03184028FC0B3928F101003403105A
:100082004528F40C0318F107F10CF00CFC0B422884
:02009200080064
:1000940083120313DD0105305D02031858285D083F
:1000A4005C07840020308000DD0A4D285D085C0771
:1000B40084008001DD035D085C07DE000A30F40083
:1000C400F5015A08F0005B08F10003207808F000FD
:1000D4007908F1003030F0075E0884007008800071
:1000E4000A30F400F5015A08F0005B08F10003201F
:1000F4007008DA007108DB0000307106031D8428E3
:1001040000307006031D87288928DD035D28080058
:0E0114008312031339088A003808820008009D
:1001220083160313981897280000912883125A08FF
:040132009900080028
:100136000A3083120313F4005A08F0002020063018
:0E014600F40031205A08F0070318F10A0800EF
:10015400831203135A08930083161418B228AE2886
:0801640083121308F0000800EB
:10016C0083120313D601D7015108D8005208D900C5
:10017C0080305206F00080307002031DC72800301A
:10018C0051020318D5280130D6000030D700510891
:10019C00003CD8005208031C013ED901D902580872
:1001AC00DA005908DB005308DC004A200630D40082
:1001BC000030D5005508003C031DE6285408003CCF
:1001CC000318012954085307F20001305402F000BF
:1001DC000030031C013E5502F100700853078400E7
:1001EC000008F00072088400700880000130D4020E
:1001FC00031CD503E02853088400203080005608E7
:10020C00570403191F29D401D5015408530784003E
:10021C000008203A031D1629D40A0319D50A0B2904
:10022C000130D402031CD5035408530784002D302D
:04023C008000080036
:100240008A208A110A128000840AB80A0319B90A9E
:08025000F003031D2029080042
:100258008312031308100E30DA00AA20DA01AA204C
:1002680008148230FC00DD30FD00FD0B3929FC0B41
:08027800392900000000080014
:1002800083120313D20108100D30FC00FB30FD0077
:10029000FD0B4829FC0B4829000000005108840090
:1002A0000008DA00AA200130D200043052020318FC
:1002B00064295208510784000008DA009B20700866
:1002C000DA00AA20D20A552908140D30FC00FB30B0
:1002D000FD00FD0B6929FC0B6929000000000800E6
:1002E000831603139816903083129800831687178D
:1002F000071383128C1E7F291A08F0007929080041
:1003000083120313D20108100D30FC00FB30FD00F6
:10031000FD0B8829FC0B882900000000510884008F
:100320000008DA00AA200130D2000430520203187B
:10033000A42952085107D300DA01AA2053088400E7
:1003400070088000D20A952908140D30FC00FB309B
:10035000FD00FD0BA929FC0BA929000000000800E5
:1003600083120313D301510884000008D2005208FD
:10037000003A0319C5295208DA009120D30A53081C
:0C038000510784000008D200B7290800D3
:10038C00831203135108F000F00CF013F00CF0136F
:10039C00F00CF013F00CF0130630F4003120700860
:1003AC005102F0007108031C013EF101F10208003A
:1003BC005B3083120313A000A1015D30A200A301E6
:1003CC006930A4006E30A5006930A6006330A70028
:1003DC006930A8006F30A9002030AA006430AB004F
:1003EC006530AC002030AD006C30AE006130AF0039
:1003FC002030B0007030B1007230B2007530B300F4
:10040C006530B4006230B5006130B600B70184309D
:10041C00C5001A30C6000430C7001430C800C9012A
:10042C00CA01CB01CC018030CD003B30CE001E3058
:10043C00CF000530D00019308316990018157021A3
:10044C002430D100B02183168711871207160810AB
:10045C00940120308312940008140B30FB002630DA
:10046C00FC005D30FD00FD0B392AFC0B392AFB0B1F
:10047C00392A000000000130D1002C214530D10078
:10048C0040214D30D10040211A30FB005E30FC0081
:10049C006E30FD00FD0B502AFC0B502AFB0B502A32
:1004AC0000004930D10080212030D100B021033030
:1004BC00C4004408003C0318742A4408493E8400D4
:1004CC000008D100C6217008D100D2013A30D30007
:1004DC00B6203A30D100B021C4035F2A2230D100BB
:1004EC00B0210330FB008A30FC005530FD00FD0BC1
:1004FC007D2AFC0B7D2AFB0B7D2A00000000572A6D
:02050C00862A3D
:04400E00F22F000786
:00000001FF
