:02000000C02816
:0E0006000030831203138C1A0130F000080042
:10001400831203131A08F100981C122818121816D8
:060024007108F000080065
:10002A008316031398181B280000152883123A0810
:04003A009900080021
:10003E00831203133A0893008316141827282328D3
:08004E0083121308F000080002
:100056008316031398169030831298008316871719
:10006600071383128C1E3A281A08F0003428080059
:0E0076008312031325088A0024088200080064
:10008400193083160313990018152B208316871132
:1000940087120716081080309400203083129400D1
:1000A40008140D30FC00FB30FD00FD0B5728FC0B41
:0800B4005728000000000800BD
:1000BC0083120313B8010810BA011F20B8010730CE
:1000CC0038020318742838083707B900BA011F2002
:1000DC003908840070088000B80A652808140800E4
:1000EC0083120313B80108108030BA001F20B80126
:1000FC000730380203188A283808370784000008AC
:10010C00BA001F20B80A7E2808140D30FC00FB3002
:10011C00FD00FD0B8F28FC0B8F2800000000080051
:10012C000320700803199C280A209D289628080093
:10013C003B208A110A128000840AA40A0319A50A1A
:08014C00F003031D9E280800CA
:1001540083120313B901370884000008B800380873
:10016400003A0319BF283808BA001520B90A39081B
:0C017400370784000008B800B12808001C
:100180004F3083120313A0004B30A1000A30A200AD
:10019000A301A7015930A8003030A9000530AA00FA
:1001A000AB012830AC000430AD002030AE00AF0110
:1001B000B001B101B201B301B401B5014220283050
:1001C000B7007620A70103207008031917290A2019
:1001D0007008A7007008723A031DFE282F30B70080
:1001E0005E20A601073026020318FE2826082F3EAF
:1001F00084000008BA001520A60AF2282708733ADE
:10020000031D1729A6010730260203181129260805
:10021000283EB60096203608840070088000A60AA2
:1002200003292830B70076202030B700AA20E22822
:0202300018298B
:04400E00F22F000786
:00000001FF
