:020000000328D3
:1000060083160313871187120716081040309400D1
:1000160020308312940008148230FC00DD30FD008D
:10002600FD0B1328FC0B13280000000008104830B5
:1000360093008316141820281C284F30831293002F
:1000460083161418272823284C308312930083160E
:1000560014182E282A284130831293008316141868
:1000660035283128831208140330FB008A30FC003F
:100076005530FD00FD0B3D28FC0B3D28FB0B3D28B4
:080086000000000019284628C3
:04400E00F22F000786
:00000001FF
